:1000000000800020BD010000F5820000B9820000E0
:10001000B9820000B9820000B9820000B9820000F4
:10002000B9820000B9820000B9820000F5820000A8
:10003000F5820000B9820000F5820000A98200006C
:10004000F5820000F5820000F5820000F5820000D4
:10005000F5820000F5820000F5820000F5820000C4
:10006000F5820000F5820000F5820000F5820000B4
:10007000F5820000F5820000F5820000F5820000A4
:10008000F5820000F5820000F5820000F582000094
:10009000F5820000F5820000F5820000F582000084
:1000A000F5820000F5820000F5820000F582000074
:1000B000F5820000F5820000F5820000F582000064
:1000C000F5820000F5820000F5820000F582000054
:1000D000F5820000F5820000F5820000F582000044
:1000E000F5820000F5820000F5820000F582000034
:1000F000F582000091880000F58200008D8E0000DE
:10010000F5820000AD930000F5820000F58200004A
:10011000F5820000F5820000F5820000F582000003
:10012000F5820000F5820000F5820000F5820000F3
:10013000F5820000F5820000F5820000F5820000E3
:10014000F5820000F5820000F5820000F5820000D3
:10015000C17E0000D97E0000F17E0000097F000012
:10016000F582000031740000F5820000F582000085
:10017000F5820000F5820000F5820000F5820000A3
:10018000F5820000F5820000F5820000F582000093
:10019000F5820000F5820000F5820000F582000083
:1001A000F5820000F5820000F5820000F582000073
:1001B000F5820000F5820000F5820000574B4CF2FA
:1001C000205210B51A804DF628121A8000BF00BFC9
:1001D00008F094F8524B4FF010621A60514A9A603E
:1001E000514ADA60A3F53043203B1A6812F480725A
:1001F00004D14E490A604FF4A8521A604C4B1A7849
:10020000110703D51A7842F008021A70494B4A4C7C
:100210004A482A221A704A4A00239918A14203D256
:10022000195899500433F8E7464B474900228B424E
:1002300002D243F8042BFAE74448454900235A58B0
:100240001A500433B3F5DE7FF9D1424B424A802184
:1002500003F8011B9342FBD1404B3C4A1A60404BD0
:100260000A221A70A3F5805324225A70A0221A7011
:100270009A799207FCD59A79D406FCD4394A9379B5
:1002800003F00C03082B374BF9D103221A714C22CF
:100290005A719A799006FCD5324A9179314B4906C8
:1002A000FBD5314A4FF001711160042151602022C9
:1002B0001A709A7902F00C020C2AFAD12B4B2C4AB4
:1002C0001A602C4B2C4A1A6000225A60072243F80D
:1002D000042C2A4AC3F80C2D62B606F06BFF134BB0
:1002E0001B68DA0705D5264806F022FD254B264A6D
:1002F0001A60264B1B785B0609D5224C224A2368DC
:10030000934204D11E4806F013FD0023236009F038
:10031000F1FD07F0F9FF07F071FFFEE70E20054041
:1003200030800440823F04000100002B14D00340C1
:1003300002D0074000E007409C0D0020783101000A
:100340006087FF1FA00D0020B03F00200082FF1F2C
:100350000000000000E400E05FE400E008ED00E0E1
:1003600000500640004006404480044004800440A1
:10037000C010050014E000E07F32020000002020E1
:100380006081CB561CE00340A5C3945A00F007409F
:10039000FFFFFFFFFFFFFFFFFFFFFFFFFFFFFFFF6D
:1003A000FFFFFFFFFFFFFFFFFFFFFFFFFFFFFFFF5D
:1003B000FFFFFFFFFFFFFFFFFFFFFFFFFFFFFFFF4D
:1003C000FFFFFFFFFFFFFFFFFFFFFFFFFFFFFFFF3D
:1003D000FFFFFFFFFFFFFFFFFFFFFFFFFFFFFFFF2D
:1003E000FFFFFFFFFFFFFFFFFFFFFFFFFFFFFFFF1D
:1003F000FFFFFFFFFFFFFFFFFFFFFFFFFFFFFFFF0D
:10040000FFFFFFFFFFFFFFFFFFFFFFFFFEFFFFFFFD
:1004100010B5054C237833B9044B13B10448AFF33E
:1004200000800123237010BDA00D002000000000FB
:100430007831010008B5064B1BB106480649AFF3F9
:1004400000800648036813B1054B03B1984708BD07
:100450000000000078310100A40D00209C0D002058
:1004600000000000204B1B6813F0800F38D00122E1
:100470001E4B1A6040F6FF721D4B1A601D4B1A6826
:100480001D4B1A6000231D4A13601D4A13601D4A4C
:1004900013601D4A13601D4A13601D4A13601D4AF4
:1004A00013601D4A13601D4A13601D4A13601D4AE4
:1004B00013601D4A13601D4A13601D4B1B7813B156
:1004C00000221C4B1A6000231B4A13701B4A137036
:1004D0001B4A93705370137001221A4B1A607047B5
:1004E0000022024B1A60704790F00F40283B00201A
:1004F000C83700208C370020240E00205C370020F5
:100500005C38002040380020540E0020803A002043
:10051000683A0020443A0020343B0020203A002072
:10052000003A0020D8390020B8390020783900205E
:10053000D8380020DC0D0020043B00200C2F0020C8
:10054000843800200038002010B5044607F0ACFDC8
:10055000204610BD10B5104C104B18684FF07C5160
:1005600009F0ACFA4FF0814109F0A8FA09F06CFCEF
:1005700060610B4B1B689B10C3F58063094A1268CE
:10058000134440F27F729342A8BF134623EAE373F9
:100590001B01236110BD00BFDC0D0020203B0020AB
:1005A000303B0020CC3B002038B5324D02232B706D
:1005B00058236B70304B1A6A6A805A69AA801A698C
:1005C000EA80DA682A815A6A6A81DA69AA819A69B4
:1005D000EA819A682A825A686A821B68AB82274B32
:1005E0001B7885F82030264B1B7885F82130254B69
:1005F0001B7885F82230244B1B7885F82330234B59
:100600001B7885F82430224B186809F043FCE882F7
:10061000204B1B682B83204B1B886B831F4B1B6855
:10062000AB831F4B1B68EB831E4B1B68C5F8253043
:100630001D4B186809F02EFCC5F829001B4B1B68E0
:10064000C5F82D301A4B1B68C5F83130194B1B7893
:1006500085F83530184B1B7885F83630032385F83C
:1006600037306C1E373514F8010F07F0C7FBAC426A
:10067000F9D138BD102F00200C3800205839002047
:10068000500E00200D2F00200E2F0020A437002038
:10069000800300205C3B0020AC380020303B002071
:1006A000D40D0020A83A0020203B0020D4FFFF1FDB
:1006B000A0380020CA3800204C39002038B5054D3C
:1006C000012407F00FFB002803DD07F0BFFA2C70B0
:1006D000F7E738BD6C3B002008B5002006F04CF968
:1006E000284B1978814202D0002006F059F9264B98
:1006F0001B68002B45D0012006F03EF9234B1978EA
:10070000814202D0012006F04BF9022006F034F9B4
:100710001F4B1978814202D0022006F041F90320D4
:1007200006F02AF91B4B1978814202D0032006F00B
:1007300037F9042006F020F9174B1978814202D0CE
:10074000042006F02DF9052006F016F9134B197850
:10075000814202D0052006F023F9062006F00CF9AC
:100760000F4B1978814202D0062006F019F90720B4
:1007700006F002F90B4B1978814202D0072006F0EF
:100780000FF908BDCA380020BC37002058390020B6
:10079000500E00200D2F0020280E0020643B00206A
:1007A0000E2F0020D838002038B5184B1B68B3B97D
:1007B0000A2005F0E1FF164C2062164B1D68164B0F
:1007C00013F8250005F0D8FF44F82500072005F0B0
:1007D000D3FF6061062005F0CFFF206138BD0A20FD
:1007E00005F0CAFF0A4C20620A4B1D680B4B13F838
:1007F000250005F0C1FF44F82500072005F0BCFFE7
:100800006061062005F0B8FF206138BDBC370020CC
:100810000C380020E42E00202CFD000050C4000005
:1008200008B5374B1B681BBB364B374A127853F859
:10083000322092F80012354A1170354A127853F876
:10084000322092F8002212F0FF0F14BF0021012184
:10085000304A1170304A127853F8323093F800322F
:1008600013F0FF0F14BF002201222C4B1A703CE042
:100870002B4B1B78002B38D12A4805F0B3FD70B103
:10088000284805F0DBFD50B1204B1A78D2F1010267
:1008900038BF00221A7042F21072234B1A602348AC
:1008A00005F0A0FD70B1214805F0C8FD50B11B4B0B
:1008B0001A78D2F1010238BF00221A7042F2107287
:1008C000194B1A601A4805F08DFD70B1184805F0F3
:1008D000B5FD50B10F4B1A78D2F1010238BF00229A
:1008E0001A7042F21072104B1A600C4B1B78094AB6
:1008F00012785200002B08BF01320E4B1A7008BD4F
:10090000BC3700209C2E0100AC0200200E2F0020DE
:10091000F8020020280E0020F0000020643B002098
:10092000603B0020083B0020B83B00205C390020E1
:100930006C2E00204C39002008B59D4B1B681BB95C
:1009400041F288329B4B1A6000239B4A13700121AD
:100950009A4A11709A4A4FF07E51D160916051606D
:100960001160984AD360936053601360964B1B7874
:10097000002B40F0C980954B1B78072B00F2B98102
:10098000DFE803F00420374E657C93AA904807F017
:100990008BFB00238F4A53618F4A53618F4B1B6837
:1009A000002B0BDB591E8E4A914207D803EB430301
:1009B0001A0187488B49013A07F05EFB20228A4BD7
:1009C0001A6008BD824807F06FFB844B1B68002B40
:1009D0000BDB591E824A914207D803EB43031A01ED
:1009E0007B488249013A07F047FB20227E4B1A6080
:1009F00008BD774807F058FB784B1B68002B0BDBD2
:100A0000591E774A914207D803EB43031A017048F5
:100A10007749013A07F030FB2022734B1A6008BD7A
:100A20006B4807F041FB6D4B1B68002B0BDB591E1D
:100A30006B4A914207D803EB43031A0164486C499F
:100A4000013A07F019FB2022674B1A6008BD604885
:100A500007F02AFB614B1B68002B0BDB591E604A19
:100A6000914207D803EB43031A0159485D49013A03
:100A700007F002FB20225C4B1A6008BD544807F0C7
:100A800013FB564B1B68002B0BDB591E544A91423B
:100A900007D803EB43031A014D485649013A07F0C2
:100AA000EBFA2022504B1A6008BD494807F0FCFAC7
:100AB0004A4B1B68002B0BDB591E494A914207D851
:100AC00003EB43031A0142484B49013A07F0D4FAB9
:100AD0002022454B1A6008BD3D4807F0E5FA3F4B20
:100AE0001B68002B0BDB591E3D4A914207D803EBD4
:100AF00043031A0136484149013A07F0BDFA40F272
:100B0000FF12394B1A6008BD304B1B78072B00F2DF
:100B1000F080DFE813F008001F0036007B00920031
:100B2000A900C000D7002A4807F0BEFA2B4B1B686B
:100B3000002B0BDB591E2A4A914207D803EB4303D3
:100B40001A0123482E49013A07F096FA2022264B33
:100B50001A6008BD1E4807F0A7FA204B1B68002B3F
:100B60000BDB591E1E4A914207D803EB43031A01BF
:100B700017482449013A07F07FFA20221A4B1A60DD
:100B800008BD134807F090FA144B1B68002B0BDBD1
:100B9000591E134A914207D803EB43031A010C482C
:100BA0001949013A07F068FA20220F4B1A6008BD74
:100BB000BC370020C82E0020603B0020D43B002022
:100BC000400E0020FC0D0020D8380020CA3800203C
:100BD0002439002078390020D8390020D4FFFF1FA5
:100BE0005755550575B9FF1FB40200200D94FF1F1E
:100BF00051D8FF1F7DF5FF1F6DA4FF1F99EDFF1F4B
:100C000015D0FF1F6187FF1FADE4FF1F394807F0B4
:100C10004BFA394B1B68002B0BDB591E374A9142AC
:100C200007D803EB43031A0132483549013A07F06C
:100C300023FA2022334B1A6008BD2E4807F034FAFD
:100C40002D4B1B68002B0BDB591E2C4A914207D8F9
:100C500003EB43031A0127482B49013A07F00CFA2A
:100C60002022284B1A6008BD224807F01DFA224BAB
:100C70001B68002B0BDB591E204A914207D803EB5F
:100C800043031A011B482149013A07F0F5F92022D4
:100C90001C4B1A6008BD174807F006FA164B1B6874
:100CA000002B0BDB591E154A914207D803EB430377
:100CB0001A0110481649013A07F0DEF92022114BBB
:100CC0001A6008BD0B4807F0EFF90B4B1B68002BAF
:100CD0000BDB591E094A914207D803EB43031A0163
:100CE00004480C49013A07F0C7F940F2FF12054BDE
:100CF0001A6008BD24390020D4FFFF1F5755550541
:100D0000ADE4FF1FB402002015D0FF1F7DF5FF1FCB
:100D100015B1FF1F99EDFF1F08B5344805F062FBC0
:100D200040B1324805F08AFB20B10022304B1A70E6
:100D3000FFF702FE2F4805F055FB40B12D4805F0A6
:100D40007DFB20B101222A4B1A70FFF7F5FD2A48DE
:100D500005F048FB40B1284805F070FB20B10222A5
:100D6000234B1A70FFF7E8FD244805F03BFB40B128
:100D7000224805F063FB20B103221D4B1A70FFF7D8
:100D8000DBFD1F4805F02EFB40B11D4805F056FB6A
:100D900020B10422164B1A70FFF7CEFD194805F05A
:100DA00021FB40B1174805F049FB20B10522104B4B
:100DB0001A70FFF7C1FD144805F014FB40B112484A
:100DC00005F03CFB20B10622094B1A70FFF7B4FD79
:100DD0000E4805F007FB40B10C4805F02FFB20B191
:100DE0000722034B1A70FFF7A7FD08BDD03700207C
:100DF000CA38002038390020E03700202C0E0020AF
:100E0000F03700206C2E00205C390020083B0020C9
:100E100008B51C4B1B6823BB1B4B1A781B4B53F8A4
:100E2000323093F80032DBB2194A1370194A127843
:100E30009A4225D0174A1370174A12683BB1D2B2B2
:100E4000124B53F83230012283F8802006E0D2B2F0
:100E50000E4B53F83230012283F80021FFF76CFD6E
:100E600008BD0E4805F0BEFA50B10C4805F0E6FA90
:100E700030B10B4B1A78D2F1010238BF00221A7040
:100E800008BD00BFBC370020840300209C2E010059
:100E9000653B0020D8380020F83A00208C3800202C
:100EA000A437002008B53D4B1B681BBB3C4B3D4A9B
:100EB000127853F8322092F800123B4A11703B4AE4
:100EC000127853F8322092F8002212F0FF0F14BF6C
:100ED00000210121364A1170364A127853F8323017
:100EE00093F8003213F0FF0F14BF00220122324B9F
:100EF0001A7008BD314B1B78002B4DD1304805F0DE
:100F000071FA70B12E4805F099FA50B1264B1A7853
:100F1000D2F1010238BF00221A7042F21072294B3E
:100F20001A60294805F05EFA70B1274805F086FA84
:100F300050B11F4B1A78D2F1010238BF00221A704B
:100F400042F210721F4B1A60204805F04BFA70B144
:100F50001E4805F073FA50B1174B1A78D2F101020E
:100F600038BF00221A7042F21072164B1A601848ED
:100F700005F038FA80B1164805F060FA60B1154BFB
:100F80001A78D2F1010238BF00221A7042F21072B0
:100F90000C4B1A60FFF7D0FC08BD00BFBC37002027
:100FA0009C2E010038010020583900203C0100200F
:100FB000500E0020400100200D2F0020603B00203B
:100FC000D0370020B83B0020E0370020F037002069
:100FD00038390020D8380020F0B583B0264D296A72
:100FE000264C81FB0423C818CB17C3EB602040F2CA
:100FF000222640F2FF17009706FB1010002140F256
:1010000021220B4607F0ECF81D4B1860296981FB83
:101010000423C818CB17C3EB6020009706FB101001
:10102000002140F221220B4607F0DAF8154B186038
:101030002B6A84FB03121A44DB17C3EB6223124AA8
:1010400052F8231011480160013352F82320104B4D
:101050001A602B6984FB03241C44DB17C3EB642355
:101060000C4A52F823100C480160013352F8232037
:101070000A4B1A6003B0F0BD0C380020F1000FF0ED
:10108000CC380020140E0020F4000020CC2E0020CC
:10109000D02E0020680400201C0E0020200E00200E
:1010A000F0B583B0A34C2046A34B19780A22002345
:1010B00007F014F8204607F001F8A04A1068A04B8A
:1010C0001968411A9F48016012681A609E4B1B788C
:1010D000072B00F25485DFE813F00800A400D800C5
:1010E0006901B001ED01E9024603984B1C682046F6
:1010F00008F08CFC0646964908F0E0FC08F0CAFEB1
:10110000944B1860C4F5FF60073008F07FFC9249EB
:1011100008F0D4FC08F0BEFE904B18600122904B02
:101120001A70904B1C8840F6FF731C1B8E4A926805
:10113000A2F6FF7202EB44049C42A8BF1C468B4BF4
:101140009C42B8BF1C468A4B1C60204608F062FCDB
:101150004FF0725108F0B2FC0546864B186001460C
:1011600008F0ACFC0146284608F0A8FC4FF0785186
:1011700008F0A4FC0546804B1860002C1EDD7F4B58
:101180001E684FF0605108F099FC314608F096FC5B
:1011900008F05AFE7A4C60604042A06028464FF04A
:1011A000625108F08BFC0146304608F087FC08F0DD
:1011B0004BFEE0604042206000F0E1BC3046294632
:1011C00008F07CFC05466C4B18606D4C6D4908F0CE
:1011D00075FC6D4908F026FD08F036FE20602846B3
:1011E0006A4908F06BFC684908F01CFD08F02CFE09
:1011F000404260602846664908F060FC624908F099
:1012000011FD08F021FEA0602846624908F056FC56
:101210005D4908F007FD08F017FE4042E06000F06D
:10122000AEBC4A4B1C68204608F0F0FB484908F069
:1012300045FC08F02FFE474B1860C4F5FF600730EF
:1012400008F0E4FB444908F039FC08F023FE434B66
:10125000186011F079FF0023414A1370414A128847
:10126000C2F57F620F32404989680A4441F6FE7137
:101270008A42A8BF0A46484922EAE27212054A6138
:101280004B623F4A136000F07ABC304B1C6820462A
:1012900008F0BCFB304908F011FC08F0FBFD2D4BB9
:1012A0001860C4F5FF60073008F0B0FB2A4908F069
:1012B00005FC08F0EFFD294B18602A4B198840F611
:1012C000FF72511A284B9B68A3F6FF7303EB41038F
:1012D0009342A8BF1346254A9342B8BF1346244AF7
:1012E0001360002B08DD2C4A53622C4B1C6000223B
:1012F0005A609A60DA6015E0002BB8BF5B425B0071
:10130000274A13600021244A5162244A1160546024
:101310009160D160990A0831224A1170C3F3090320
:10132000214A136011F010FF00220D4B1A7000F0DB
:1013300026BC00BF943D00204C390020803C00209A
:10134000683B0020A83A0020CA380020543300200F
:10135000B81E453FC83B0020EC51783F403A002082
:10136000F43A0020AC3800200C38002001F0FFFFD8
:10137000543900202C3B0020C0370020203B0020A7
:10138000FC0D0020421F47430050C347D8691B444F
:10139000C65086440CE6A74478390020B8380020AF
:1013A00008380020183B0020F80D00209F4B1C68D7
:1013B000204608F02BFB9E4908F080FB08F06AFDF0
:1013C0009C4B1860C4F5FF60073008F01FFB98497C
:1013D00008F074FB08F05EFD974B1860974B198876
:1013E00040F6FF72511A964B9B68A3F6FF7303EB0E
:1013F00041039342A8BF1346924A9342B8BF134693
:10140000914A1360002B08DD904A5362904B0022F2
:101410001A605A609C60DA600DE0002BB8BF5B4236
:101420005B008C4A1360894A5362894B00221A6020
:101430005A609A60DC6011F087FE0122864B1A70B8
:101440007A4B1C68204608F0E1FA844908F036FB24
:1014500008F020FD774B1860C4F5FF60073008F0F6
:10146000D5FA734908F02AFB08F014FD724B186096
:10147000724B1B88C3F57F630F33714A9268134424
:1014800041F6FE729342A8BF134623EAE3739B1210
:1014900003EB4303724A1360724C04EB8304002392
:1014A00071487249E25851F822201A500433102B27
:1014B000F8D164E30122684B1A705C4B1E68304619
:1014C00008F0A4FA07466A4908F0F8FA08F0E2FCC6
:1014D000584B1860C6F5FF60073008F097FA54497A
:1014E00008F0ECFA08F0D6FC534B1860534B1C88FC
:1014F00040F6FF731C1B524A9268A2F6FF7202EB81
:1015000044049C42A8BF1C464E4B9C42B8BF1C469C
:101510004D4B1C60204608F07DFA4FF0725108F0E8
:10152000CDFA0546534B1860014608F0C7FA01464C
:10153000284608F0C3FA504908F074FB0146002C15
:101540003CDD0022424B1A60384608F0B7FA4B499E
:1015500008F068FB05464A4B1860434C494908F0BF
:10156000ADFA494908F05EFB4FF07E5108F09EF954
:1015700020602846454908F0A1FA434908F052FB8B
:101580004FF07E5108F092F960602846404908F01B
:1015900095FA3D4908F046FB4FF07E5108F086F978
:1015A000A06028463B4908F089FA374908F03AFB21
:1015B0004FF07E5108F07AF9E06022E0364B1B785C
:1015C0005BB1234B84EAE472A2EBE47206FB02F205
:1015D000520A5A6000221A600AE01D4B84EAE47243
:1015E000A2EBE47206FB02F2520A1A6000225A6071
:1015F0000022234B1A60294B0122DA609A605A605C
:101600001A600F4B1A6A521202EBC20224490A6096
:101610005A69521202EBC20222490A601B695B122C
:1016200003EBC303204A1360A9E200BF5433002038
:10163000EC51783FC83B0020403A0020AC380020F5
:101640000C38002001F0FFFF5439002078390020C9
:10165000B838002008380020F43A002052B85E3F25
:101660006C39002088D00000400E0020F4EC00000F
:10167000B81E453F2C3B002000409C4500F07F45B4
:10168000C0370020421F474300247449D8691B44D7
:10169000C65086440CE6A744D8380020FC0D002034
:1016A00094370020F82E00201C3B0020874B1C683C
:1016B000204608F0ABF9864908F000FA08F0EAFB8A
:1016C000844B1860C4F5FF60073008F09FF980492B
:1016D00008F0F4F908F0DEFB7F4B186011F034FDE0
:1016E00000227E4B1A707E4B1A6A12057D4B5A619E
:1016F0007D4B18687D4908F0D7F804467C4B186884
:1017000008F088F90146204608F0D0F804464FF06A
:10171000824108F071FB30B92046764908F08AFB17
:1017200020B1744803E04FF0824000E0204608F00A
:10173000B1FB714B18806A4B9A685210A2F5006297
:101740006E4B1B88C3F57F630F3302EB630340F2DC
:10175000FE729342A8BF134669496A4A8B42ACBFE6
:10176000136011600BE2FFF737FC00225B4B1A702D
:10177000564B1C68204608F049F9634908F09EF969
:1017800008F088FB534B1860C4F5FF60073008F081
:101790003DF94F4908F092F908F07CFB4E4B186078
:1017A0005A4B186808F050FB8012594B5861594B3E
:1017B0001B68002B59D0584B1B68C3F57F630F3350
:1017C000474A5068184408F025F90446002108F0FB
:1017D00013FB30B92046514908F02CFB18B14F4893
:1017E00002E0002000E020464FF0645108F066F966
:1017F0004B4B18604B4B1A68A2F6FF72384D2B68A2
:10180000134441F6FF74A342A8BF234623EAE373BF
:10181000DB10454A5362686918260096012122466A
:1018200045F6C05306F0DCFC404B1860E8680096B3
:10183000012122464FF4FA4306F0D2FC3C4B1860DB
:101840003C4B1B781BB102223B4B1A6002E000228A
:10185000394B1A60394B1B781BB10222384B1A6086
:10186000D0E00022364B1A60CCE0324B1B78002BC4
:1018700068D1294B1B68C3F57F630F33184A506842
:10188000184408F0C7F80446002108F0B5FA30B94A
:101890002046224908F0CEFA18B1204802E0002084
:1018A00000E020464FF0645108F008F91C4B186026
:1018B0000B4B586918230093012141F6FF7245F63E
:1018C000C05306F08DFC194B18605CE054330020C7
:1018D000EC51783FC83B0020403A0020F43A002009
:1018E0000C380020D8390020FC3A002000107E453A
:1018F000A837002000F0FF45A8000020AC380020E9
:1019000002F8FFFF482F0020D578493F203B0020F8
:10191000683A0020BC370020303B002000F8FF452B
:10192000DC3B0020D40D002078390020B4380020A2
:10193000C42E0020D8380020E82E0020280E0020D9
:10194000B83700208F4C606808F064F84FF064519D
:1019500008F0B4F88C4B18608C4B1B68C3F57F63A0
:101960000F336069184441F6FF729042A8BF1046D9
:101970001823009320EAE070012145F6C05306F0D9
:101980002FFC834B1860834B1B78DBB9824B1A68A2
:10199000A2F6FF727B490B68134441F6FF72934233
:1019A000A8BF134623EAE373DB107C484362C86890
:1019B0001823009301214FF4FA4306F011FC784BF1
:1019C00018601AE06F4B1A68D21074494A62724A62
:1019D0001068A0F6FF70DB68184441F6FF72904271
:1019E000A8BF10461823009320EAE07001214FF4AD
:1019F000FA4306F0F5FB6A4B18600023694A13604E
:101A0000694A1360604D2C682046214608F056F85C
:101A10000146204608F052F84FF0924108F04EF887
:101A2000286008F011FA4011604B9861604B1B78F8
:101A3000544A5269920202FB03F25E4B1A605E4BFB
:101A40001B7833B1524B554A916B1A6802EB213225
:101A50001A604F4A136803FB03F15B0331FB13F376
:101A600003F5004313604E4A136803FB03F11B03A5
:101A700031FB13F303F500431360504B1D8840F610
:101A8000FF735D1B3F4A9268A2F6FF7202EB4505A9
:101A90009D42A8BF1D464A4B9D42B8BF1D46494BBB
:101AA0001D6085EAE570A0EBE57007F0B3FF4649DD
:101AB00008F0B8F80446454B1860014607F0FEFFF1
:101AC0000146204607F0FAFF0446414B1860002DFE
:101AD00024DD404D404907F0F1FF4FF07E5107F003
:101AE000E5FE286020463D4907F0E8FF4FF07E51B3
:101AF00007F0DCFE68602046394907F0DFFF4FF051
:101B00007E5107F0D3FEA8602046364907F0D6FF85
:101B10004FF07E5107F0CAFEE86030E02D4D2146BF
:101B200007F0C4FE304907F0C9FF4FF07E5107F0BF
:101B3000BDFE286020462D4907F0C0FF2A4907F066
:101B4000BDFF4FF07E5107F0B1FE68602046284986
:101B500007F0B4FF244907F0B1FF4FF07E5107F0C2
:101B6000A5FEA86020464FF0824107F0A7FF1E495E
:101B700007F0A4FF4FF07E5107F098FEE86003B035
:101B8000F0BD00BF0C380020DC3B0020303B0020C3
:101B9000B4380020280E0020D40D00207839002011
:101BA000C42E0020E82E0020B8370020343B00204F
:101BB000500E0020B038002058390020AC380020EA
:101BC00001F0FFFF5439002000A00C462C3B002000
:101BD000C0370020400E0020421F4743D8691B44F5
:101BE000C65086440CE6A74400005C42000040401A
:101BF0000000A04010B5544B1B78012B4DD1534B26
:101C00001B6A5B129AB252490A8052490988B1F59F
:101C1000807F08D950490988914204D001204F495A
:101C200008604D490A809BB24D4A52F823204D4B23
:101C30001A60464B5B695B129AB24B490A804B496A
:101C40000988B1F5807F08D949490988914204D0B3
:101C500001204249086046490A809BB2454A52F831
:101C60002320454B1A60394B1B695B129AB24349DA
:101C70000A8043490988B1F5807F08D9414909881C
:101C8000914204D00120354908603E490A809BB248
:101C90003D4A52F823203D4B1A603D4B1B68082BF0
:101CA00051D8DFE803F01924050C500F21504400EF
:101CB000264B986807F0AEFE364B186010BDFFF754
:101CC000A7F810BD214B1B695B120F2B0CBF1F2205
:101CD0001722314B1A7010BD1C4B9A6952102F4BB2
:101CE0001A60FEF79DFD10BDFFF7DCF810BD2C4B10
:101CF0001A682C492C4C086854F82230C31A13482F
:101D0000006844F8220003440B6001320F2A02DC11
:101D100023490A6002E00021214A11601A46002B83
:101D2000B8BF03F10F021211204B1A6010BD074B10
:101D30005A6892101E490A60DA6852121D4B53F815
:101D400022201D4B1A6010BDF43A00200C380020F0
:101D5000C8010020520E0020503B00207C3800209B
:101D60008C030020F40D0020A80200207039002010
:101D70003C38002020000020243B0020AA02002044
:101D8000C83800208437002044010020D42E0020D1
:101D9000E42E00209C380020AC040020D83B00201A
:101DA000D4010020CC370020E4380020A8370020E0
:101DB000CC3B002094FFFF1F8038002010B5574B0C
:101DC0001B78012B33D1564B1B6A5B129AB25549D3
:101DD0000A8055490988B1F5807F08D95349098897
:101DE000914204D001205249086050490A809BB2B8
:101DF000504A52F82320504B1A60494B5B695B12E2
:101E00009AB24E490A804E490988B1F5807F08D9B7
:101E10004C490988914204D001204549086049494C
:101E20000A809BB2484A52F82320484B1A60484B1C
:101E30001B68082B71D8DFE803F02B36050E7018ED
:101E400033705600FEF7E4FF354B986807F0E2FD6B
:101E5000404B186010BD324B5B695B120F2B0CBFFF
:101E60001F2217223C4B1A7010BD2D4B1B69DB1033
:101E7000A3F50073394A136003FB03F000FB03F082
:101E800007F0C8FD4FF0425107F018FE344B1860C0
:101E9000234B9A695210334B1A60FEF7C1FC10BDF8
:101EA000FFF700F810BD304B1A683049304C086815
:101EB00054F82230C31A1A48006844F82200034438
:101EC0000B6001320F2A02DC27490A6002E0002180
:101ED000254A11601A46002BB8BF03F10F021211F8
:101EE000244B1A6010BD0E4B5A68921022490A60AA
:101EF000DB685B12214A52F82310214A1160214A03
:101F000052F82310204A11600F2B03D11F221F4BC0
:101F10001A7010BD17221D4B1A7010BDF43A002024
:101F20000C380020C8010020520E0020503B002039
:101F30007C3800203C030020F40D0020A802002083
:101F4000703900203C3800201C020020243B002077
:101F5000E42E00209C38002064000020D82E0020B1
:101F60003C0E0020D83B0020D4010020CC370020BC
:101F7000E4380020A8370020CC3B0020FC020020E1
:101F80008038002088010020C40D00208803002034
:101F900010B5584B1B78012B4DD1574B1B6A5B1268
:101FA0009AB256490A8056490988B1F5807F08D906
:101FB00054490988914204D001205349086051498D
:101FC0000A809BB2514A52F82320514B1A604A4B67
:101FD0005B695B129AB24F490A804F490988B1F593
:101FE000807F08D94D490988914204D00120464993
:101FF00008604A490A809BB2494A52F82320494B5B
:102000001A603D4B1B695B129AB247490A804749E7
:102010000988B1F5807F08D945490988914204D0E3
:1020200001203949086042490A809BB2414A52F86E
:102030002320414B1A60414B1B68082B59D8DFE81D
:1020400003F018230558580E20584300FEF7E0FE11
:10205000294B986807F0DEFC394B186010BD264B01
:102060001B695B120F2B0CBF1F221722354B1A70F6
:1020700010BD214B9A695210334B1A60FEF7D0FB0A
:1020800010BDFEF70FFF10BD304B1A683049314CC0
:10209000086854F82230C31A1748006844F8220030
:1020A00003440B6001320F2A02DC28490A6002E077
:1020B0000021264A11601A46002BB8BF03F10F0217
:1020C0001211254B1A6010BD0B4B5A689210234910
:1020D0000A60DB685B12224A52F82310214A116021
:1020E0000F2B03D11F22204B1A7010BD17221E4B3D
:1020F0001A7010BDF43A00200C380020C8010020EE
:10210000520E0020503B00207C380020640200204A
:10211000F40D0020A8020020703900203C38002077
:1021200018040020243B0020AA020020C838002008
:1021300084370020D8FFFF1FD42E0020E42E00207B
:102140009C380020AC040020D83B0020D4010020A3
:10215000CC370020E4380020A8370020CC3B0020FA
:10216000B8020020803800208803002010B5554BAD
:102170001B78012B33D1544B1B6A5B129AB2534923
:102180000A8053490988B1F5807F08D951490988E7
:10219000914204D00120504908604E490A809BB208
:1021A0004E4A52F823204E4B1A60474B5B695B1234
:1021B0009AB24C490A804C490988B1F5807F08D908
:1021C0004A490988914204D001204349086047499F
:1021D0000A809BB2464A52F82320464B1A60464B6F
:1021E0001B68082B6DD8DFE803F02C37050E6C1840
:1021F000346C5700FEF70CFE334B986807F00AFC6E
:102200003E4B186010BD304B5B695B120F2B0CBF4F
:102210001F2217223A4B1A7010BD2B4B1B69DB1083
:10222000A3F50073374A136003FB03F000FB03F0D0
:1022300007F0F0FB4FF0485107F040FC324B1860BC
:1022400010BD214B9A695210304B1A60FEF7E8FA24
:1022500010BDFEF727FE10BD2D4B1A682D492E4CE0
:10226000086854F82230C31A1748006844F822005E
:1022700003440B6001320F2A02DC25490A6002E0A8
:102280000021234A11601A46002BB8BF03F10F0248
:102290001211224B1A6010BD0B4B5A689210204944
:1022A0000A60DB685B121F4A52F823101E4A116055
:1022B0000F2B03D11F221D4B1A7010BD17221B4B71
:1022C0001A7010BDF43A00200C380020C80100201C
:1022D000520E0020503B00207C380020D801002006
:1022E000F40D0020A8020020703900203C380020A6
:1022F000D0030020243B0020E42E00209C38002046
:1023000064000020D82E00203C0E0020D83B002086
:10231000D4010020CC370020E4380020A83700206A
:10232000CC3B00206800002080380020880300207B
:102330002DE9F04F85B09D4B186807F06BFB044604
:102340009B4B18684FF07C5107F0B8FB0146994849
:1023500007F0AAFA0146204607F0A8FA0446002131
:1023600007F04AFD30B92046924907F063FD18B1E5
:10237000904802E0002000E0204607F065FD8E4B0B
:102380001860FEF7E7F88D4B1B78032B01F22E80C7
:10239000DFE813F004002D040102E005FFF7F8FD6B
:1023A000824B186807F036FB4FF06E5107F086FB42
:1023B0000546834B1860834B1C68014607F07EFB83
:1023C0000146284607F07AFB05462046214607F0DD
:1023D00075FB0146204607F071FB0146284607F0D1
:1023E00065FA0446784B18684FF07C5107F066FB9D
:1023F0000146204607F062FB07F04CFD734B188046
:10240000734B1C682046734907F014FDE0B1204669
:10241000704907F049FA4FF06E5107F04FFB044640
:102420006D4B1860014607F049FB0146204607F056
:1024300045FB4FF0685107F041FB4FF07E5107F02C
:1024400035FA664B186006E020464FF0665107F0FB
:1024500035FB624B1860624B1B78002B00F0EA8062
:10246000604B186807F0D6FA5F4907F0DBFB0446BB
:102470005E4B1860014607F021FB0146204607F03D
:102480001DFB5B4907F012FA0446544B18684FF0E5
:10249000824107F013FB0146204607F00FFB8346FD
:1024A000544B1860544B18604FF081445C60534BA0
:1024B0001D682846214607F001FB07F0C5FC504B7C
:1024C0009861504F386807F0A5FA82464E4E28466C
:1024D000316807F0F3FA214607F0F0FA514607F0A9
:1024E000E5F907F0B1FC494BD861786807F092FA3A
:1024F00081462846716807F0E1FA214607F0DEFAC6
:10250000494607F0D3F907F09FFC414B9861B86842
:1025100007F080FA80462846B16807F0CFFA2146D6
:1025200007F0CCFA414607F0C1F907F08DFC394BB2
:102530005861F86807F06EFA07462846F16807F018
:10254000BDFA214607F0BAFA394607F0AFF907F0AD
:102550007BFC314B98615846304907F0AFFA04468E
:1025600007F072FC2E4B98635046214607F09EF907
:1025700007F06AFC2B4B58624846214607F096F953
:1025800007F062FC284BD8614046214607F08EF9DF
:1025900007F05AFC254BD8613846214607F086F9EA
:1025A00007F052FC224B186200F020BFCC3B002009
:1025B000B437002000E0FF44EC3B00204C39002001
:1025C000743900205833002050330020AE380020EA
:1025D000FC3A002000F07F45743B00203838002092
:1025E0000E2F0020A83700200000FA43DC3800201E
:1025F0006F12833A883700205C040020203B0020C3
:10260000B8390020FC0D0020400E0020003A0020C8
:10261000343B0020683A0020403800200060EA4641
:1026200078390020D8390020203A0020443A002090
:10263000803A0020834B18680012013007F0EAF955
:102640004FF07C5107F03AFA7F4B196807F036FAE1
:1026500004467E4B18607E4B18604FF081465E60EA
:102660007C4B1D682846314607F028FA07F0ECFB42
:10267000794B9861DFF82C822846D8F8001007F0D3
:102680001DFA0090754F386807F0C4F9834600982A
:10269000314607F013FA594607F008F907F0D4FB62
:1026A0006F4BD8612846D8F8041007F007FA01905C
:1026B000786807F0AFF982460198314607F0FEF9D5
:1026C000514607F0F3F807F0BFFB664B98612846C8
:1026D000D8F8081007F0F2F90290B86807F09AF9F4
:1026E00081460298314607F0E9F9494607F0DEF8DD
:1026F00007F0AAFB5C4B58612846D8F80C1007F08D
:10270000DDF98046F86807F085F90746404631460E
:1027100007F0D4F9394607F0C9F807F095FB534B99
:1027200098612046294607F0C9F907F08DFB504B08
:1027300098632046009907F0C1F90146584607F012
:10274000B5F807F081FB4B4B58622046019907F022
:10275000B5F90146504607F0A9F807F075FB464B5E
:10276000D8612046029907F0A9F90146484607F0CA
:102770009DF807F069FB414BD8612046414607F0C0
:102780009DF90146384607F091F807F05DFB3C4B98
:10279000186200F02BBEFFF7E9FC3A4B186807F00F
:1027A00039F94FF06E5107F089F90546364B18603C
:1027B000364B1C68014607F081F90146284607F0B0
:1027C0007DF905462046214607F078F90146204666
:1027D00007F074F90146284607F068F804462C4BC8
:1027E00018684FF07C5107F069F90146204607F060
:1027F00065F907F04FFB274B1880274B1C682046D4
:10280000264907F017FB00284ED02046234907F041
:102810004BF84FF06E5107F051F90446204B186009
:10282000014607F04BF90146204607F047F94FF003
:102830006C5107F043F94FF07E5107F037F8024B27
:10284000186038E0A837002038380020883700208A
:102850005C040020203B0020B8390020FC0D002043
:10286000003A0020343B0020683A00204038002025
:1028700078390020D8390020203A0020443A00203E
:10288000803A0020CC3B00207439002058330020CF
:1028900050330020AE380020FC3A002000F07F4585
:1028A000743B0020400E002020464FF0665107F098
:1028B00005F9604B1860604B1B78002B00F0EA8034
:1028C0005E4B186807F0A6F85D4907F0ABF90446BF
:1028D000014607F0F3F8214607F0F0F8594906F0F1
:1028E000E5FF0446534B18684FF0824107F0E6F8C5
:1028F0000146204607F0E2F88146534B1860534BDF
:1029000018604FF081455D60514B188807F082F8E0
:10291000504B196807F0D2F84FF0685107F0CEF825
:102920004FF07E5106F0C2FF04464B4B18604B4BF4
:102930001E683046294607F0C1F80146204607F0D8
:10294000BDF807F081FA464B9861DFF844813046C4
:10295000D8F8001007F0B2F8294607F0AFF80146A2
:10296000204607F0ABF882463E4F386807F052F831
:102970000146504606F09AFF07F066FA3A4BD861D6
:102980003046D8F8041007F099F8294607F096F871
:102990000146204607F092F88246786807F03AF838
:1029A0000146504606F082FF07F04EFA2F4B986121
:1029B0003046D8F8081007F081F8294607F07EF86D
:1029C0000146204607F07AF88246B86807F022F8F8
:1029D0000146504606F06AFF07F036FA244B58616C
:1029E0003046D8F80C1007F069F8294607F066F869
:1029F0000146204607F062F80446F86807F00AF836
:102A00000146204606F052FF07F01EFA194B986166
:102A10004846194907F052F807F016FA174B986321
:102A2000174B5862174BD861174BD861174B186278
:102A300000F0DCBC383800200E2F0020A837002022
:102A40000000FA436F12833A883700205C040020AC
:102A5000C83800203C0E002050390020203B0020C8
:102A6000B8390020FC0D0020003A0020343B002043
:102A7000683A0020403800200060EA46783900209B
:102A8000D8390020203A0020443A0020803A002023
:102A9000400E0020694B18684012013006F0BAFF62
:102AA000674B196807F00AF88046664B1860664B5A
:102AB00018604FF081455D60644B188806F0A6FFF2
:102AC000634B196806F0FAFF4FF0685106F0F6FF05
:102AD0004FF07E5106F0EAFE04465E4B18605E4BF6
:102AE0001B6800931846294606F0E8FF0546204675
:102AF000294606F0E3FF07F0A7F9584B9861584FB5
:102B0000386806F087FF8346564E2846316806F03F
:102B1000D5FF0146204606F0D1FF594606F0C6FE15
:102B200007F092F9504BD861786806F073FF82463F
:102B30002846716806F0C2FF0146204606F0BEFF37
:102B4000514606F0B3FE07F07FF9484B9861B8682C
:102B500006F060FF81462846B16806F0AFFF0146E7
:102B6000204606F0ABFF494606F0A0FE07F06CF9E0
:102B70003F4B5861F86806F04DFF07462846F1685C
:102B800006F09CFF0146204606F098FF394606F005
:102B90008DFE07F059F9374B98614046009906F0D1
:102BA0008DFF044607F050F9334B98635846214691
:102BB00006F07CFE07F048F9304B5862504621463B
:102BC00006F074FE07F040F92D4BD86148462146C7
:102BD00006F06CFE07F038F92A4BD86138462146DA
:102BE00006F064FE07F030F9274B1862FEE3FFF7AA
:102BF00001F8264B1C682046254907F01BF90028E0
:102C00004AD02046224906F04FFE4FF06E5106F0A2
:102C100055FF04461F4B1860014606F04FFF014662
:102C2000204606F04BFF4FF0685106F047FF4FF08B
:102C30007E5106F03BFE024B186034E0A8370020BE
:102C400038380020883700205C040020C838002075
:102C50003C0E002050390020203B0020B8390020D5
:102C6000FC0D0020400E0020003A0020343B0020E4
:102C7000683A00204038002078390020D8390020F8
:102C8000203A0020443A0020803A0020FC3A0020FC
:102C900000F07F45743B002020464FF0665106F05F
:102CA0000DFF974B1860974B1B78002B00F081802D
:102CB000954B1868C01006F0ADFE944906F0B2FFBF
:102CC0004FF07E5106F0F2FD8D4B196806F0F6FECE
:102CD00080468F4B18608F4B4FF081441C605860CA
:102CE0008D4B1D682846214606F0E8FE07F0ACF83B
:102CF0008A4B98638A4F2846396806F0DFFE2146E2
:102D000006F0DCFE8146874E306806F083FE014601
:102D1000484606F0CBFD07F097F8834B58622846EB
:102D2000796806F0CBFE214606F0C8FE8146706841
:102D300006F070FE0146484606F0B8FD07F084F83C
:102D40007A4BD8612846B96806F0B8FE214606F0ED
:102D5000B5FE8146B06806F05DFE0146484606F0C5
:102D6000A5FD07F071F8724BD8612846F96806F0A6
:102D7000A5FE214606F0A2FE0446F06806F04AFED3
:102D80000146204606F092FD07F05EF8694B186296
:102D90004046694906F092FE07F056F8674B986185
:102DA000674B5861674B9861674BD861674B986177
:102DB0001CE3554B1868401106F02CFE644906F0E0
:102DC00031FF4FF07E5106F071FD4D4B196806F052
:102DD00075FE4F4B18604F4B4FF0814AC3F800A06F
:102DE00058604D4BD3F800B0594606F067FE07F027
:102DF0002BF8564B986106F00DFE0446484E33689A
:102E00000093484D286806F005FE8146204600994B
:102E100006F054FE494606F049FD07F015F84A4B06
:102E2000D86172680192686806F0F4FD8046204619
:102E3000019906F043FE414606F038FD07F004F81C
:102E4000404B9861B3680293A86806F0E3FD07461B
:102E50002046029906F032FE394606F027FD06F0BC
:102E6000F3FF374B5861F668E86806F0D3FD054676
:102E70002046314606F022FE294606F017FD06F0F0
:102E8000E3FF2E4B98615846514606F017FE06F0B8
:102E9000DBFF224B986306F0BDFD044600982146F7
:102EA00006F00CFE0146484606F000FD06F0CCFF99
:102EB0001D4B58620198214606F000FE014640462F
:102EC00006F0F4FC06F0C0FF184BD86102982146CA
:102ED00006F0F4FD0146384606F0E8FC06F0B4FFC3
:102EE000134BD8613046214606F0E8FD01462846DE
:102EF00006F0DCFC06F0A8FF0E4B186276E200BF7D
:102F0000383800200E2F0020A8370020CDCC8C3F71
:102F1000883700205C040020203B00207839002006
:102F2000400E0020FC0D0020D8390020203A00205F
:102F3000443A0020803A002000C82F484038002042
:102F4000683A0020343B0020003A0020B8390020C5
:102F50000000E040FEF732FF964B1C682046964981
:102F600006F068FFE0B12046934906F09DFC4FF063
:102F70006E5106F0A3FD0446904B1860014606F022
:102F80009DFD0146204606F099FD4FF0685106F080
:102F900095FD4FF07E5106F089FC894B186006E0E4
:102FA00020464FF0665106F089FD854B1860854B31
:102FB0001B78002B00F03681834B1868C01006F098
:102FC00029FD824906F02EFE4FF07E5106F06EFC80
:102FD0007B4B196806F072FD05467D4B18607D4BF2
:102FE0004FF081461E6058607B4B188806F00EFD3E
:102FF0007A4B196806F062FD4FF0685106F05EFDED
:103000004FF07E5106F052FC0446754B186028467E
:10301000744906F053FD0146204606F04FFD06F0C8
:1030200013FF714B9861714FD7F8008040466D498E
:1030300006F044FD0146284606F040FD01462046C4
:1030400006F03CFD06F000FF694BD861D7F804B0EC
:103050005846644906F032FD0146284606F02EFD2A
:103060000146204606F02AFD06F0EEFE614B98610F
:10307000D7F808A050465B4906F020FD01462846D7
:1030800006F01CFD0146204606F018FD06F0DCFEA9
:10309000594B5861D7F80C904846524906F00EFD3E
:1030A0000146284606F00AFD0146204606F006FDC8
:1030B00006F0CAFE514B9861514B1F6838463146A5
:1030C00006F0FCFC0146204606F0F8FC06F0BCFECB
:1030D0004C4B98634046394606F0F0FC314606F00A
:1030E000EDFC0146204606F0E9FC0090DFF8308157
:1030F000D8F8000006F08EFC0146009806F0D6FBDA
:1031000006F0A2FE404B58625846394606F0D6FCFF
:10311000314606F0D3FC0146204606F0CFFC83463C
:10312000D8F8040006F076FC0146584606F0BEFBCF
:1031300006F08AFE354BD8615046394606F0BEFC93
:10314000314606F0BBFC0146204606F0B7FC82463D
:10315000D8F8080006F05EFC0146504606F0A6FBD3
:1031600006F072FE2A4BD8614846394606F0A6FCA6
:10317000314606F0A3FC0146204606F09FFC0446BB
:10318000D8F80C0006F046FC0146204606F08EFBFF
:1031900006F05AFE1F4B186228464FF0785106F091
:1031A0008DFC1D4906F08AFC06F04EFE1B4B186193
:1031B0001CE100BFFC3A002000F07F45743B00207A
:1031C000383800200E2F0020A8370020CDCC8C3FAF
:1031D000883700205C040020C83800203C0E002006
:1031E0005039002000C82F48B8390020400E002078
:1031F000003A0020343B0020683A0020403800208C
:10320000203B002078390020D8390020203A0020C7
:10321000443A0020803A00200060EA46540E002024
:10322000FC0D0020734B1868401106F0F3FB724947
:1032300006F0F8FC4FF07E5106F038FB6F4B196832
:1032400006F03CFC05466E4B18606E4B4FF0814219
:103250001A6058606C4B188806F0D8FB6B4B1968E5
:1032600006F02CFC4FF0685106F028FC4FF07E5120
:1032700006F01CFB0446664B1860664B1F68284628
:10328000394606F01BFC06F0DFFD634B986106F043
:10329000C1FB0646DFF8AC91D9F800300093DFF8A7
:1032A000A881D8F8000006F0B5FB834630460099A7
:1032B00006F004FC594606F0F9FA06F0C5FD574B36
:1032C000D861D9F804200192D8F8040006F0A2FBD6
:1032D00082463046019906F0F1FB514606F0E6FAC7
:1032E00006F0B2FD4E4B9861D9F808300293D8F839
:1032F000080006F08FFB03903046029906F0DEFBD3
:10330000039906F0D3FA06F09FFD464B5861D9F8B1
:103310000C90D8F80C0006F07DFB804630464946FC
:1033200006F0CCFB414606F0C1FA06F08DFD3E4B9F
:10333000986138464FF0814106F0C0FB01462046B7
:1033400006F0BCFB06F080FD384B986306F062FB8C
:1033500006460098314606F0B1FB0146204606F0CD
:10336000ADFB0146584606F0A1FA06F06DFD304B64
:1033700058620198314606F0A1FB0146204606F04E
:103380009DFB0146504606F091FA06F05DFD294B83
:10339000D8610298314606F091FB0146204606F0BE
:1033A0008DFB0146039806F081FA06F04DFD224B95
:1033B000D8614846314606F081FB0146204606F0BA
:1033C0007DFB0146404606F071FA06F03DFD1B4BC1
:1033D000186228464FF07A5106F070FB01463846D5
:1033E00006F06CFB06F030FD154B186105B0BDE82A
:1033F000F08F00BFA83700200000E04038380020E0
:10340000883700205C040020C83800203C0E0020D3
:1034100050390020203B0020B8390020003A00201D
:10342000343B0020683A00204038002078390020E2
:10343000D8390020203A0020443A0020803A002069
:10344000540E0020400E0020FC0D00202DE9F84F06
:10345000954BDA685212954B53F82220944B1A6020
:10346000944B186806F0D6FA4FF06E5106F026FB22
:10347000914B1860FDF76EF8904B1B78032B00F210
:10348000A180DFE803F002374386FEF781FD8C4B15
:10349000186806F0FFFC8B4B58604FF07E528A4B49
:1034A0001A60854B1D68894B1C682846294606F022
:1034B00005FB0146284606F001FB0546204621464D
:1034C00006F0FCFA0146204606F0F8FA01462846C6
:1034D00006F0ECF904467E4B18684FF07C5106F07C
:1034E000EDFA0146204606F0E9FA06F0D3FC794BE6
:1034F000188067E0FEF77EFB0023724A53604FF0AE
:103500007E51714A1160734A13805BE0FEF72EFE14
:103510006B4B186806F0BEFC6A4B58606E4B1888FF
:1035200006F074FA6D4B196806F0C8FA4FF068514E
:1035300006F0C4FA4FF07E5106F0B8F9624B1860FD
:103540005D4B1D68614B1C682846294606F0B6FA9B
:103550000146284606F0B2FA05462046214606F006
:10356000ADFA0146204606F0A9FA0146284606F0C3
:103570009DF90446564B18684FF07C5106F09EFAB0
:103580000146204606F09AFA06F084FC514B18805A
:1035900018E0FEF713FC00244A4B5C604E4B188881
:1035A00006F034FA4D4B196806F088FA4FF068516E
:1035B00006F084FA4FF07E5106F078F9424B18601D
:1035C000444B1C803B4B186806F024FA0446444BDD
:1035D00018684FF07C5106F071FA0146414806F038
:1035E00063F90146204606F061F90446002106F021
:1035F00003FC30B920463C4906F01CFC18B13A499E
:1036000002E0002100E02146364806F04DF906F0C0
:103610001BFC364B1860364B1C682046354906F0BB
:1036200009FCE0B12046334906F03EF94FF06E51F7
:1036300006F044FA0446304B1860014606F03EFAA4
:103640000146204606F03AFA4FF06C5106F036FA81
:103650004FF07E5106F02AF9284B186006E020460C
:103660004FF0665106F02AFA244B1860244B1B7861
:10367000002B00F03B82234B1B78002B00F00E81C7
:10368000214B1B78062B43D1074BD86806F0C2F9B3
:103690004FF07F5106F012FA4FF07E5106F006F916
:1036A0001A4B186043E000BF0C380020B000002027
:1036B000C00D0020CC3B0020743900204C39002084
:1036C000203B00207839002050390020583300205A
:1036D00050330020AE380020C83800203C0E0020B7
:1036E000B437002000E0FF440080FC44EC3B0020A5
:1036F000FC3A002000F07F45743B00203838002061
:10370000643B00200E2F0020CA380020883700209C
:10371000AC4B1868401006F07DF94FF07E5106F072
:10372000C5F8A94B196806F0C9F9A84B1860A84B51
:103730004FF081441C60A54A15685D609C60A54BF4
:10374000186806F067F9A44906F06CFAA34906F078
:10375000B5F906F079FB8046DFF8D4A2CAF8180064
:103760009F4B1F689F4B1E683846214606F0A6F9FE
:10377000314606F0A3F906F067FB8146CAF8380027
:103780002846994906F09AF906F05EFB0546974BE4
:103790009861404606F03EF9904906F087F806F039
:1037A00053FB80464400A14502DC914B586203E084
:1037B0004FEA69028E4B5A6238468E4B596806F0C2
:1037C0007DF94FF0814106F079F90146304606F067
:1037D00075F98146884B586806F01CF90146484641
:1037E00006F064F806F030FB844BD861844BDD6151
:1037F000844203DB834BC3F8188002E04010814B06
:10380000986138467B4B996806F058F94FF0814132
:1038100006F054F90146304606F050F98146764BE1
:10382000986806F0F7F80146484606F03FF806F0BB
:103830000BFB754BD861754B5D61844203DB744BA8
:10384000C3F8208002E04010714B18623846694B83
:10385000D96806F033F94FF0814106F02FF901469F
:10386000304606F02BF90646634BD86806F0D2F8CE
:103870000146304606F018F806F0E6FA654B986106
:10388000654BDD61844204DB644BC3F82080BDE8F6
:10389000F88F4010614B1862BDE8F88F604B1B78C1
:1038A000062B0ED15F4BD868001106F0B3F85E49C5
:1038B00006F0B8F94FF07E5105F0F8FF434B186061
:1038C00011E0404B1868401106F0A4F8574906F083
:1038D000A9F94FF07E5105F0E9FF3B4B196806F05E
:1038E000EDF83A4B18603A4B4FF081451D60374A6E
:1038F000D2F80080C3F804809D60364B186806F04B
:1039000089F8354906F08EF9344906F0D7F806F003
:103910009BFA0746DFF818A1CAF81800304B1C685C
:10392000304B1E682046294606F0C8F8314606F09E
:10393000C5F806F089FA8146CAF8380040462146A3
:1039400006F0BCF8804606F07FFA284B98613846AE
:1039500006F060F8214905F0A9FF06F075FA074660
:103960004500A94502DC224B586203E04FEA690298
:103970001F4B5A62204B586806F04CF8824620468E
:103980001C4B596806F09AF84FF0814106F096F802
:103990000146304606F092F8514605F087FF06F0E2
:1039A00053FA8146154BD8614046514605F07EFFDB
:1039B00006F04AFA124BD8614D453BDB114B9F6133
:1039C0003CE000BFA83700203838002088370020AE
:1039D0005C040020EC3B00200000C0400060EA478F
:1039E000203B0020503900200060EA46B839002012
:1039F000D8390020400E0020FC0D0020003A0020A5
:103A0000203A0020343B0020443A0020683A00204D
:103A1000803A0020403800205C3800205C370020CD
:103A2000CA3800200C380020000060410000A0408F
:103A3000783900204FEA6902984B9A61984B986850
:103A400005F0E8FF82462046964B996806F036F866
:103A50004FF0814106F032F80146304606F02EF86C
:103A6000514605F023FF06F0EFF981468E4BD861F1
:103A70004046514605F01AFF06F0E6F98B4B5861B7
:103A80004D4502DB8A4B1F6203E04FEA6902884B17
:103A90001A62834BD86805F0BDFF81462046814BF2
:103AA000D96806F00BF84FF0814106F007F801469F
:103AB000304606F003F8494605F0F8FE06F0C4F972
:103AC00004467C4B98614046494605F0EFFE06F0FF
:103AD000BBF9794BD861A54203DB784B1F62BDE887
:103AE000F88F6410754B1C62BDE8F88F744B1B781F
:103AF000002B00F0C080734B1B78062B0ED1724B4D
:103B0000D86805F087FF4FF07F5105F0D7FF4FF0E1
:103B10007E5105F0CBFE6D4B18600EE06C4B1868C3
:103B2000401005F077FF4FF07E5105F0BFFE694B66
:103B3000196805F0C3FF654B1860674B4FF081446F
:103B40001C60624A16685E609C60644BD3F800801B
:103B50004046214605F0B2FF0546614B186805F066
:103B600059FF604906F05EF80146284605F0A6FFB9
:103B700006F06AF98146DFF88CA1CAF818005A4BA2
:103B80001F682846394605F099FF06F05DF9CAF826
:103B900038003046554905F091FF06F055F90646C4
:103BA000534B9861484605F035FF0146284605F01D
:103BB0007DFE06F049F905464E4B5862DFF8E4A059
:103BC0004046DAF8041005F079FF214605F076FF4B
:103BD0000146384605F072FF8346DFF8C490D9F8F5
:103BE000040005F017FF0146584605F05FFE06F099
:103BF0002BF9414BD861414BDE61284B9D6140461A
:103C0000DAF8081005F05AFF214605F057FF014683
:103C1000384605F053FF8346D9F8080005F0FAFE50
:103C20000146584605F042FE06F00EF91E4BD861DB
:103C30001E4B5E611E4B1D624046DAF80C1005F00B
:103C40003DFF214605F03AFF0146384605F036FFB4
:103C50000446D9F80C0005F0DDFE0146204605F0CB
:103C600025FE06F0F1F8134B9861134BDE61134B00
:103C70001D62BDE8F88F134B1B78062B44D1124B05
:103C8000D868001105F0C6FE1D4905F0CBFF4FF0C6
:103C90007E5105F00BFE0D4B186047E0343B0020D1
:103CA000FC0D0020400E0020443A0020683A00201D
:103CB000803A0020403800205C3800205C3700202B
:103CC0000E2F0020CA3800200C3800208837002032
:103CD000A8370020383800205C040020203B00205A
:103CE000EC3B002000007F43503900200060EA4692
:103CF000B8390020D8390020003A0020203A0020AE
:103D000000006041783900205F4B1868401105F0D1
:103D100081FE5E4905F086FF4FF07E5105F0C6FD3D
:103D20005B4B196805F0CAFE5A4B18605A4B4FF0AE
:103D300081441C60574AD2F80080C3F804809C601C
:103D4000564B1D682846214605F0B8FE0646544BE2
:103D5000186805F05FFE534905F064FF01463046E0
:103D600005F0ACFE06F070F88146DFF86CA1CAF8E9
:103D700018004D4B1F683046394605F09FFE06F08F
:103D800063F8CAF838004046294605F097FE804699
:103D900006F05AF8454B9861484605F03BFE01464F
:103DA000304605F083FD06F04FF80646404B58625A
:103DB000DFF828A1DAF8040005F02CFE8346DFF8CE
:103DC00020912846D9F8041005F078FE214605F028
:103DD00075FE0146384605F071FE594605F066FD50
:103DE00006F032F8334BD8614046594605F05EFD87
:103DF00006F02AF8304BD861304B9E61DAF80800A3
:103E000005F008FE83462846D9F8081005F056FE4E
:103E1000214605F053FE0146384605F04FFE59464F
:103E200005F044FD06F010F8254BD8614046594690
:103E300005F03CFD06F008F8224B5861224B1E624B
:103E4000DAF80C0005F0E6FD82462846D9F80C1099
:103E500005F034FE214605F031FE0146384605F0F6
:103E60002DFE514605F022FD05F0EEFF174B98613F
:103E70004046514605F01AFD05F0E6FF144BD861A7
:103E8000144B1E62BDE8F88FA837002000002041C7
:103E900038380020883700205C040020203B0020B8
:103EA000EC3B002000007F4350390020B83900204F
:103EB000D8390020003A0020203A0020343B00206E
:103EC000443A0020683A0020803A00204038002020
:103ED0005C3800205C37002078390020FC0D002081
:103EE000400E0020F8B56F4B186805F093FD0446AE
:103EF0006D4B18684FF07C5105F0E0FD01466B48B2
:103F000005F0D2FC0146204605F0D0FC0446002115
:103F100005F072FF30B92046644905F08BFF18B1F7
:103F2000624802E0002000E0204605F08DFF604B73
:103F30001860FCF70FFB5F4B1C6820465E4905F0DC
:103F400079FFE0B120465C4905F0AEFC4FF06E51C0
:103F500005F0B4FD0446594B1860014605F0AEFD6E
:103F60000146204605F0AAFD4FF0685105F0A6FD78
:103F70004FF07E5105F09AFC514B186006E0204648
:103F80004FF0665105F09AFD4D4B18604D4B1B7874
:103F9000032B00F24682DFE813F004004E01B50067
:103FA0009B01FDF7F5FF3F4B186805F033FD4FF01F
:103FB0006E5105F083FD0546434B1860434B1C686A
:103FC000014605F07BFD0146284605F077FD0546D4
:103FD0002046214605F072FD0146204605F06EFDA3
:103FE0000146284605F062FC0446394B18684FF03C
:103FF0007C5105F063FD0146204605F05FFD05F0AC
:1040000049FF344B1880344B1B78002B2BD0334B9B
:10401000D86805F0FFFC324905F004FE0446314B38
:104020001860014605F04AFD0146204605F046FDB0
:104030002D4905F03BFC2D4B18602D4B18604FF0BF
:1040400081445C602B4905F039FD05F0FDFE2A4BEB
:1040500098632A4B1868214605F030FD05F0F4FE00
:10406000274B9861F8BD1D4BD8684012013005F010
:10407000D1FC1E4B18601E4B18604FF081445C60F1
:104080001E4B1D68294605F019FD05F0DDFE1A4B93
:1040900098632846214605F011FD05F0D5FE184B22
:1040A0009861F8BDCC3B0020B437002000E0FF440D
:1040B000EC3B0020FC3A002000F07F45743B0020E0
:1040C000383800204C390020743900205833002043
:1040D00050330020AE3800200E2F00200C38002076
:1040E0000000FA43DC3800206F12833A8837002042
:1040F0005C0400200060EA4678390020203B002064
:10410000B8390020FEF732F8984B186805F082FCA9
:104110004FF06E5105F0D2FC0546954B1860954B5B
:104120001C68014605F0CAFC0146284605F0C6FC9D
:1041300005462046214605F0C1FC0146204605F013
:10414000BDFC0146284605F0B1FB04468A4B1868C1
:104150004FF07C5105F0B2FC0146204605F0AEFC64
:1041600005F098FE854B1880854B188805F04EFCAD
:10417000844B196805F0A2FC4FF0685105F09EFCD5
:104180004FF07E5105F092FB04467F4B18607F4B49
:104190001B78002B2CD07E4BD86805F03BFC7D496A
:1041A00005F040FD0546014605F088FC294605F06E
:1041B00085FC794905F07AFB784B1860784B1860DC
:1041C0004FF081455D60774905F078FC05F03CFED5
:1041D000754B9863754B1868294605F06FFC0146CE
:1041E000204605F06BFC05F02FFE714B9861F8BD81
:1041F000674BD8684012013005F00CFC674B186023
:10420000674B18604FF081455D60684B1E68314612
:1042100005F054FC05F018FE634B986330462946C0
:1042200005F04CFC0146204605F048FC05F00CFE6C
:104230005F4B9861F8BDFDF7DDFC544B1B7823B351
:10424000534BD868C01005F0E5FB5A4905F0EAFC6D
:104250004FF07E5105F02AFB0446504B1860504B3E
:104260004FF0814119605860504B186805F026FCEA
:1042700005F0EAFD4C4B986320464A4905F01EFCC8
:1042800005F0E2FD4A4B9861F8BD414BD8684011FA
:1042900005F0C0FB4FF07E5105F008FB04463F4B94
:1042A00018603F4B4FF08141196058603F4B1D68CB
:1042B000284605F003FC05F0C7FD3B4B98632046FC
:1042C000294605F0FBFB05F0BFFD394B9861F8BDB1
:1042D000FDF774FD2A4B188805F098FB294B1968E7
:1042E00005F0ECFB4FF0685105F0E8FB4FF07E5114
:1042F00005F0DCFA0446244B1860244B1B78002B95
:104300005CD0234BD868C01005F084FB294905F028
:1043100089FC4FF07E5105F0C9FA05461F4B186025
:104320001F4B4FF081461E6058601E4905F0C6FBCA
:1043300005F08AFD1E4B98611C4B1868314605F04C
:10434000BDFB0146204605F0B9FB05F07DFD164B8F
:10435000986328464FF0785105F0B0FB114905F0FD
:10436000ADFB05F071FD144B1861F8BDCC3B00208E
:10437000743900205833002050330020AE3800201C
:10438000C83800203C0E0020503900200E2F00209D
:104390000C3800200000FA436F12833A883700205F
:1043A0005C0400200060EA4678390020203B0020B1
:1043B000B8390020CDCC8C3F540E0020194BD86862
:1043C000401105F027FB4FF07E5105F06FFA0646CD
:1043D000154B1860154B4FF081471F605860144B08
:1043E0001D68294605F06AFB05F02EFD114B98610A
:1043F0002846394605F062FB0146204605F05EFB83
:1044000005F022FD0C4B986330464FF07C5105F0CF
:1044100055FB0146284605F051FB05F015FD074BFD
:104420001861F8BD0C380020883700205C0400209B
:10443000203B0020B839002078390020540E00209D
:104440002DE9F843324BDA685212324B53F82220EE
:10445000314B1A60FCF77EF8304B186805F0DAFA39
:1044600004462F4B18684FF07C5105F027FB01469E
:104470002C4805F019FA0146204605F017FA0446C3
:10448000002105F0B9FC30B92046264905F0D2FCE0
:1044900018B1244802E0002000E0204605F0D4FCDA
:1044A000214B1860214B1C682046214905F0C2FCB5
:1044B000E0B120461E4905F0F7F94FF06E5105F0C6
:1044C000FDFA04461B4B1860014605F0F7FA014659
:1044D000204605F0F3FA4FF0685105F0EFFA4FF07F
:1044E0007E5105F0E3F9144B186006E020464FF0CA
:1044F000665105F0E3FA104B1860104B1B78032B44
:1045000000F2A984DFE813F01C00B8028801B103AF
:104510000C380020B0000020C00D0020CC3B002053
:10452000B437002000E0FF44EC3B0020FC3A0020C0
:1045300000F07F45743B0020383800204C390020C3
:10454000FDF726FD964B1E68964B1888964B1D6806
:10455000964B1C88964B1968964B1A88964B33F8E5
:10456000167033F815E004FB0EFE00FB07EE33F87F
:10457000117002FB07EE4FEAEE2E904FC7F80CE0E9
:10458000771C33F8177005F1010E33F81EE00EFBAF
:1045900004FE07FB00EE4F1C33F8177007FB02EE1A
:1045A0004FEAEE2E864FC7F81CE0B71C33F81770A1
:1045B00005F1020E33F81EE00EFB04FE07FB00EED1
:1045C0008F1C33F8177007FB02EE4FEAEE2E7D4F7B
:1045D000C7F818E0F71C33F8177005F1030E33F82D
:1045E0001EE00EFB04FE07FB00EECF1C33F8177035
:1045F00007FB02EE4FEAEE2E734FC7F814E0371DAB
:1046000033F8177005F1040E33F81EE00EFB04FEBC
:1046100007FB00EE0F1D33F8177007FB02EE4FEAA1
:10462000EE2E6A4FC7F814E0771D33F8177005F1C6
:10463000050E33F81EE00EFB04FE07FB00EE4F1DD7
:1046400033F8177007FB02EE4FEAEE2E604FC7F803
:1046500014E0B71D33F8177005F1060E33F81EE0AD
:104660000EFB04FE07FB00EE8F1D33F8177007FBEF
:1046700002EE4FEAEE2E574FC7F810E0F71D33F861
:10468000177005F1070E33F81EE00EFB04FE07FB62
:1046900000EECF1D33F8177007FB02EE4FEAEE2E47
:1046A0004D4FC7F818E0083633F81660083533F870
:1046B000155005FB04F406FB0040083133F81130B7
:1046C00003FB0202D212454B5A61454B186805F0B4
:1046D000A1F94FF06E5105F0F1F90546414B186014
:1046E000414B1C68014605F0E9F90146284605F0F2
:1046F000E5F905462046214605F0E0F90146204649
:1047000005F0DCF90146284605F0D0F80446374BA1
:1047100018684FF07C5105F0D1F90146204605F0AC
:10472000CDF905F0B7FB324B1880324B1B781BB329
:10473000314B186805F06EF9304905F073FA0446FC
:104740002F4B1860014605F0B9F90146204605F0E7
:10475000B5F92C4905F0AAF804462B4B18684FF020
:10476000824105F0ABF90146204605F0A7F9274B39
:104770001860274B18600DE01F4B1868401201307D
:1047800005F048F9204B196805F098F91F4B18609F
:104790001F4B18604FF07E521E4B1A605BE300BF48
:1047A00094370020520E0020F82E0020703900208F
:1047B0001C3B0020C838002054210100B8390020DB
:1047C000D8390020003A0020203A0020343B002055
:1047D000443A0020683A0020803A00204038002007
:1047E000CC3B002074390020583300205033002087
:1047F000AE3800200E2F0020A83700200000FA431A
:10480000DC3800206F12833A3838002088370020C7
:104810005C04002050390020FDF7A8FC794B1D688E
:10482000794B1A88794B1C68794B1E88794B19880B
:104830003144794B33F8150033F8147001FB07F756
:1048400002FB0077FF127548C760681C33F8100040
:10485000671C33F8177007FB01F700FB0277FF12A4
:104860006F48C761A81C33F81000A71C33F81770F5
:1048700007FB01F700FB0277FF126A488761E81C1B
:1048800033F81000E71C33F8177007FB01F700FB43
:104890000277FF1264484761281D33F81000271D76
:1048A00033F8177007FB01F700FB0277FF125F4830
:1048B0004761681D33F81000671D33F8177007FB58
:1048C00001F700FB0277FF1259484761A81D33F832
:1048D0001000A71D33F8177007FB01F700FB0277E4
:1048E000FF1254480761E81D33F81000E71D33F844
:1048F000177007FB01F700FB0277FF124E48876134
:10490000083533F81500083433F8143003FB01F18F
:1049100000FB0212D212494B5A61494B186805F04C
:1049200079F84FF06E5105F0C9F80546454B18600F
:10493000454B1C68014605F0C1F80146284605F0C4
:10494000BDF805462046214605F0B8F80146204648
:1049500005F0B4F80146284604F0A8FF04463B4B96
:1049600018684FF07C5105F0A9F80146204605F083
:10497000A5F805F08FFA364B1880304605F046F85A
:10498000344B196805F09AF84FF0685105F096F825
:104990004FF07E5104F08AFF2F4B18602F4B1B788D
:1049A00003B32F4B186805F035F82E4905F03AF996
:1049B0000446014605F082F8214605F07FF82A49B1
:1049C00004F074FF0446294B18684FF0824105F04B
:1049D00075F80146204605F071F8254B1860254B07
:1049E000186038E21E4B18684012013005F012F8CA
:1049F0001E4B196805F062F81D4B18601D4B1860BE
:104A000029E200BF94370020520E0020F82E00202B
:104A1000C83800207039002054210100B839002026
:104A2000D8390020003A0020203A0020343B0020F2
:104A3000443A0020683A0020803A002040380020A4
:104A4000CC3B002074390020583300205033002024
:104A5000AE3800203C0E0020503900200E2F0020E0
:104A6000A83700200000FA436F12833A383800203C
:104A7000883700205C040020FDF7BCF8C84B1E6896
:104A8000C84B1888C84B1D68C84B1C88C84B196890
:104A9000C84B1A88C84B33F8167033F815E004FB7E
:104AA0000EFE00FB07EE33F8117002FB07EE4FEA33
:104AB000EE2EC24FC7F80CE0771C33F8177005F1E3
:104AC000010E33F81EE00EFB04FE07FB00EE4F1C48
:104AD00033F8177007FB02EE4FEAEE2EB84FC7F817
:104AE0001CE0B71C33F8177005F1020E33F81EE016
:104AF0000EFB04FE07FB00EE8F1C33F8177007FB5C
:104B000002EE4FEAEE2EAF4FC7F818E0F71C33F86D
:104B1000177005F1030E33F81EE00EFB04FE07FBD1
:104B200000EECF1C33F8177007FB02EE4FEAEE2EB3
:104B3000A54FC7F814E0371D33F8177005F1040EC0
:104B400033F81EE00EFB04FE07FB00EE0F1D33F8EA
:104B5000177007FB02EE4FEAEE2E9C4FC7F814E0E9
:104B6000771D33F8177005F1050E33F81EE00EFBC4
:104B700004FE07FB00EE4F1D33F8177007FB02EE33
:104B80004FEAEE2E924FC7F814E0B71D33F81770B6
:104B900005F1060E33F81EE00EFB04FE07FB00EEE7
:104BA0008F1D33F8177007FB02EE4FEAEE2E894F88
:104BB000C7F810E0F71D33F8177005F1070E33F84A
:104BC0001EE00EFB04FE07FB00EECF1D33F817704E
:104BD00007FB02EE4FEAEE2E7F4FC7F818E00836CB
:104BE00033F81660083533F8155005FB04F406FB5E
:104BF0000040083133F8113003FB0202D212774B28
:104C00005A61774B1B78A3B1764B1868801004F07B
:104C100001FF754905F006F84FF07E5104F046FE9D
:104C2000724B196804F04AFF714B1860714B1860A1
:104C300013E06C4B1868001104F0ECFE6E4904F0B0
:104C4000F1FF4FF07E5104F031FE684B196804F01B
:104C500035FF674B1860674B18604FF07E52674B0B
:104C60001A600022664B1A80F5E0FDF7A7F84C4B5E
:104C70001C684C4B1A884C4B18684C4B19884D4B90
:104C80001B8819444C4B33F8145033F8106001FB67
:104C900006F602FB0566F612484DEE60651C33F819
:104CA0001550461C33F8166006FB01F605FB02663C
:104CB000F612434DEE61A51C33F81550861C33F8EF
:104CC000166006FB01F605FB0266F6123D4DAE616D
:104CD000E51C33F81550C61C33F8166006FB01F6C8
:104CE00005FB0266F612384D6E61251D33F815502E
:104CF000061D33F8166006FB01F605FB0266F61288
:104D0000324D6E61651D33F81550461D33F816603F
:104D100006FB01F605FB0266F6122D4D6E61A51D20
:104D200033F81550861D33F8166006FB01F605FBB7
:104D30000266F612274D2E61E51D33F81550C61D8B
:104D400033F8166006FB01F605FB0266F612224DEB
:104D5000AE61083433F81440083033F8103003FBE8
:104D600001F104FB0212D2121C4B5A611C4B1B783E
:104D7000002B47D01B4B1868801004F04BFE1A49DB
:104D800004F050FF4FF07E5104F090FD174B19686E
:104D900004F094FE164B1860164B186046E000BFF6
:104DA00094370020520E0020F82E00207039002089
:104DB0001C3B0020C838002054210100B8390020D5
:104DC000D8390020003A0020203A0020343B00204F
:104DD000443A0020683A0020803A00204038002001
:104DE0000E2F0020A8370020CDCC8C3F3838002073
:104DF000883700205C0400203333A3405039002062
:104E0000AE380020794B1868001104F003FE784991
:104E100004F008FF4FF07E5104F048FD754B19680F
:104E200004F04CFE744B1860744B1860744B188877
:104E300004F0ECFD734B196804F040FE4FF068512C
:104E400004F03CFE4FF07E5104F030FD6E4B1860D4
:104E500000226E4B1A806E4B1B78ABB1674B1C68FF
:104E600020466C4904F02AFE04F0EEFF6A4B98637A
:104E700020466A4904F0D6FE664904F01FFE04F09D
:104E8000E3FF674B186118E05C4B1D68654B1C68BD
:104E90002846214604F012FE04F0D6FF5E4B9863CC
:104EA00028464FF07A5104F009FE0146204604F0EE
:104EB00005FE04F0C9FF5A4B18615A4B1D68524B4E
:104EC0001C6828464FF0814104F0F8FD214604F0AB
:104ED000F5FD04F0B9FF544B9861544ED6F800909C
:104EE0002846534904F0EAFD494604F0E7FD01462F
:104EF000204604F0E3FD04F0A7FF4E4B5862D6F8BD
:104F0000048028464FF0824104F0D8FD414604F069
:104F1000D5FD0146204604F0D1FD04F095FF464B37
:104F2000D861B7682846454904F0C8FD394604F001
:104F3000C5FD0146204604F0C1FD04F085FF404B4D
:104F4000D861F66828464FF0834104F0B7FD31463A
:104F500004F0B4FD0146204604F0B0FD04F074FFF7
:104F6000384B986128462D4904F0A8FD09F100410D
:104F700004F0A4FD0146204604F0A0FD04F064FF07
:104F8000314BD8612846314904F098FD08F10041C1
:104F900004F094FD0146204604F090FD04F054FF17
:104FA0002B4B586128462B4904F088FD07F100413E
:104FB00004F084FD0146204604F080FD04F044FF27
:104FC000254B186228464FF0844104F077FD06F126
:104FD000004104F073FD0146204604F06FFD04F02B
:104FE00033FF1E4B9861BDE8F88300BFA83700204F
:104FF0003333A34038380020883700205C04002079
:10500000C83800203C0E002050390020AE38002067
:105010000E2F00200060EA46783900200000A041F1
:10502000540E0020203B0020B8390020400E002004
:105030000000C040D8390020003A00200000404164
:10504000203A0020343B0020443A00200000C041B8
:10505000683A00200000E041803A002040380020FB
:1050600008B5134B1B68082B20D8DFE803F00F1F8F
:10507000050C1F1F171F1A000E4B986804F0CAFC7E
:105080000D4B186008BDFBF7C3FE08BD094B9A69BC
:1050900052100A4B1A60FBF7C3FB08BDFBF702FF77
:1050A00008BD044B5A689210054B1A6008BD00BF3A
:1050B000E42E00200C3800209C380020D83B002033
:1050C000CC3B002038B5FBF745FAFFF7C9FF3A4B58
:1050D0001A685210394B1A60394B1B78002B2FD0AD
:1050E000384B394A1A604FF081415960374B186884
:1050F00004F0E4FC04F0A8FE354B9863354C2068BE
:10510000354904F0DBFC04F09FFE344B9861606885
:10511000314904F0D3FC04F097FE314B5862A0688B
:105120002D4904F0CBFC04F08FFE2E4BD861E068D3
:10513000294904F0C3FC04F087FE2B4BD86138BD2D
:105140002A4B18684012013004F064FC284B19689F
:1051500004F0B4FC274B18601A4B18604FF08141E3
:1051600059601A4B186804F0A9FC054604F06CFE5F
:10517000174B9863174C2846216804F09FFC04F0F5
:1051800063FE164B98612846616804F097FC04F0B2
:105190005BFE134B58622846A16804F08FFC04F0B4
:1051A00053FE104BD8612846E16804F087FC04F0F8
:1051B0004BFE0D4BD86138BD88380020EC3B0020F9
:1051C0000E2F00205C04002000007A43203B0020CA
:1051D00078390020400E0020C0E1E44AB8390020B0
:1051E000D8390020003A0020203A0020A8370020BB
:1051F000383800208837002008B5304B1B68002B5A
:1052000029D12F4B1B680133022B0ED0032B17D053
:10521000012B52D12B4B19882B4B1B882B4A107812
:10522000C3EB411101F094FE08BD294B1988264BB0
:105230001B88284A1078C3EB411101F089FE08BD94
:10524000254B1988204B1B88244A1078C3EB411149
:1052500001F07EFE08BD224B1B6873BB184B1B6818
:105260000133022B10D0032B1BD0012B25D11D4B5A
:105270001B78C3F38003154A10784FF47A4101FB81
:1052800003F101F065FE08BD164B1B78C3F3400324
:10529000104A10784FF47A4101FB03F101F058FEF7
:1052A00008BD104B1B7803F001030C4A10784FF433
:1052B0007A4101FB03F101F04BFE08BDC82E00202E
:1052C000E42E0020520E002014040020B0370020ED
:1052D00070390020F02E0020C8380020543B0020F8
:1052E000BC370020CA3800200C4B4FF480521A60A3
:1052F0004FF480210A4A116020221A601022043BD8
:105300001A60012203F582731A60803B4FF400613A
:1053100019604FF4806119601A60704708F00F40FF
:1053200048F00F402DE9F04184B0102001F0CAF997
:105330002120012101F0EAFD334B1878012101F011
:10534000E5FD0B20012101F0E1FD1F20022101F00C
:10535000DDFD1F2001F0CCFD002869D101242B4B7D
:105360001C6019212A4B196000222A4B1A60042262
:10537000294B1A600622294B1A600922284B1A6011
:105380006846142201F000F8264D9DE80F0007C57D
:1053900025F8023B1B0C2B701020214601F0B6FDB6
:1053A000214BD3F8043140F202321A600320214627
:1053B00001F0ACFD2020214601F0A8FD1820214677
:1053C00001F0A4FD2120214601F0A0FD212021466D
:1053D00001F06AFD1F20214601F098FD1E202146A4
:1053E00001F094FD1D20214601F090FD0F20214683
:1053F00001F08CFD0D4D2878022101F087FD287801
:10540000214601F051FD45E0AC000020BC370020F2
:10541000CC010020F83A0020B0370020F02E002008
:10542000543B00202C0E00209C2E01006002002026
:105430000024D14B1C600125D04B1D600222D04BB3
:105440001A600322CF4B1A600422CF4B1A60052248
:10545000CE4B1A600622CE4B1A600722CD4B1A6043
:10546000CD4B1C600822CD4B1A601922CC4B1A6020
:105470000922CC4B1A600A22CB4B1A600D20294618
:1054800001F044FD0D20294601F00EFD10202146BB
:1054900001F03CFD0E20002101F038FD0F2001211C
:1054A00001F034FD1120002101F030FD1220002117
:1054B00001F02CFD1320002101F028FD1420002113
:1054C00001F024FD1520002101F020FD162000210F
:1054D00001F01CFD1720002101F018FD2220002101
:1054E00001F014FD2320002101F010FD24200021F3
:1054F00001F00CFD2520002101F008FD1A200021FB
:1055000001F004FD1B20002101F000FD1C20002102
:1055100001F0FCFC994C2078022101F0F7FC207886
:10552000012101F0C1FC964C2078022101F0EEFC33
:105530002078012101F0B8FC924C2078022101F082
:10554000E5FC2078012101F0AFFC8F4C207802218E
:1055500001F0DCFC2078012101F0A6FC8B4C2078C6
:10556000022101F0D3FC2078012101F09DFC884C40
:105570002078022101F0CAFC2078012101F094FC7E
:10558000844C2078022101F0C1FC2078012101F037
:105590008BFC814C2078022101F0B8FC207801219D
:1055A00001F082FC0C20002101F0B0FC7B4D28783A
:1055B000012101F0ABFCDFF8E88198F8000001213F
:1055C00001F0A4FC774F3878012101F09FFC764E62
:1055D0003078012101F09AFC002001F047F81020FA
:1055E00001F0B6FB0D2001F06DF8202001F096F8D7
:1055F0006E4C98F80000214601F0B6FB3878214641
:1056000001F0B2FB3078214601F0AEFB2878012191
:1056100001F04AFC322001F0B7FD0320012101F026
:1056200043FC322001F0B0FD2020012101F06EFC8E
:105630002020012101F038FC322001F0A5FD1820C6
:10564000012101F031FC322001F09EFD21200021DA
:1056500001F02AFC322001F097FD1F20012101F00A
:1056600023FC322001F090FD1E20012101F01CFCE2
:10567000322001F089FD1D20012101F015FC3220AE
:1056800001F082FD0F20012101F00EFC322001F01B
:105690007BFD394B1B68F3B32878002101F004FC33
:1056A000322001F071FD0320002101F0FDFB3220CA
:1056B00001F06AFD2020002101F0F6FB322001F00C
:1056C00063FD1820002101F0EFFB322001F05CFDAA
:1056D0002120012101F0E8FB322001F055FD1F20BF
:1056E000002101F0E1FB322001F04EFD1E200021DF
:1056F00001F0DAFB322001F047FD1D20002101F00E
:10570000D3FB322001F040FD0F20002101F0CCFB43
:105710000A2001F039FDFFF7E7FD0024244B1C703F
:10572000DFF87C801F4F204E6FEA0425ADB298F859
:105730000000294601F00CFC3878294601F008FCED
:105740003078294601F004FC012001F01DFD0134F0
:10575000B4F5807FE8D1174B1B68002B32DB591E54
:10576000154A91422ED803EB43031A0113481449FA
:10577000013A02F081FC25E0BC370020380100200E
:105780003C010020CC01002040010020F802002054
:10579000F0000020AC02002084030020F83A002032
:1057A000B0370020F02E0020543B002000409C46E3
:1057B000A4370020D4FFFF1F57555505243900207A
:1057C00075B9FF1F0A2001F0DFFC0C205D4904229F
:1057D00001F066FA0A2001F0D7FC002001F0CCF8B5
:1057E000072802D8584B187002E00022564B1A7056
:1057F000564B1B68012B78D1012001F0BDF8012820
:1058000002D8534B187002E00122514B1A7002204B
:1058100001F0B2F8012802D84E4B187002E00122C4
:105820004C4B1A70032001F0A7F8012802D84A4B0C
:10583000187002E00122484B1A70042001F09CF815
:10584000012802D8454B187002E00022434B1A7021
:10585000052001F091F8012802D8414B187002E0B0
:1058600000223F4B1A70062001F086F8012802D86A
:105870003C4B187002E000223A4B1A70072001F0EE
:105880007BF8012802D8384B187002E00022364B12
:105890001A70324B1B78002B14BF00220222304CAE
:1058A00023781A44314B1A700320294B197801F0E0
:1058B000FBFA284B19781820D1F1010138BF0021DB
:1058C00001F0F2FA1F20244B197801F0EDFA0F20B5
:1058D000244B197801F0E8FA1D20217801F0E4FA50
:1058E0001E201E4B197801F0DFFAFBF725F8204F38
:1058F000BC1E07F2FE371F4E4FF4004530462946C6
:1059000002F064FC24F8020FBC42F7D11A4A1B4B88
:105910001A6000231A4A13601A4A13601A4A136065
:105920001A4A13601A4A13601A4A13601A4A13601B
:105930001A4A13601A4A13601A4A136004B0BDE889
:10594000F08100BF65040000CA380020BC37002089
:1059500058390020500E00200D2F0020280E002066
:10596000643B00200E2F0020D83800204C39002046
:105970005C3300200080FFFF00005844D038002036
:1059800040380020803A0020683A0020443A002045
:10599000343B0020203A0020003A0020D839002073
:1059A000B83900207839002008B5624B1B68002BFD
:1059B00027DD614B1B680133042B02D0052B03D07C
:1059C00008BDFFF791FC08BD5C4B1B785C4A116871
:1059D000C1F3C711DA10C2F1010241FA02F212F06A
:1059E000010F00F0A580032B564AD25C564B53F8AA
:1059F00032304FF001020CBF83F8002183F8802081
:105A000008BD524B1B681BB91022514B1A6002E0B3
:105A10001022504B1A60484B1B68082B00F28880FC
:105A2000DFE803F005323F4A55606D867A004A4B45
:105A30001B68A3B1494B1A68494B1B783BB1D2B2E2
:105A4000414B53F83230012283F8802008BDD2B296
:105A50003D4B53F83230012283F8002108BD3F4B03
:105A60001968404B93F90020384B93F900309A4263
:105A7000C9B2354B53F831304FF0010214BF83F8EF
:105A8000802083F8002108BD374B1B7823B14FF4E9
:105A900080522F4B1A6008BD4FF480522D4B1A6074
:105AA00008BD324B1B781BB12022294B1A6008BD60
:105AB0002022284B1A6008BD2D4B1B781BB10122F8
:105AC0002C4B1A6008BD01222B4B1A6008BD2B4BD2
:105AD0001B781BB101222A4B1A6008BD0122294BF9
